{
  "contractName": "Members",
  "abi": [
    {
      "constant": true,
      "inputs": [
        {
          "name": "",
          "type": "address"
        }
      ],
      "name": "members",
      "outputs": [
        {
          "name": "name",
          "type": "string"
        },
        {
          "name": "status",
          "type": "uint8"
        },
        {
          "name": "entryBlock",
          "type": "uint256"
        }
      ],
      "payable": false,
      "stateMutability": "view",
      "type": "function"
    },
    {
      "constant": true,
      "inputs": [],
      "name": "votingContractAddress",
      "outputs": [
        {
          "name": "",
          "type": "address"
        }
      ],
      "payable": false,
      "stateMutability": "view",
      "type": "function"
    },
    {
      "constant": true,
      "inputs": [
        {
          "name": "",
          "type": "uint256"
        }
      ],
      "name": "memberAddresses",
      "outputs": [
        {
          "name": "",
          "type": "address"
        }
      ],
      "payable": false,
      "stateMutability": "view",
      "type": "function"
    },
    {
      "inputs": [
        {
          "name": "initialMemberAddresses",
          "type": "address[]"
        }
      ],
      "payable": false,
      "stateMutability": "nonpayable",
      "type": "constructor"
    },
    {
      "anonymous": false,
      "inputs": [
        {
          "indexed": false,
          "name": "applicantAddress",
          "type": "address"
        },
        {
          "indexed": false,
          "name": "applicantName",
          "type": "string"
        }
      ],
      "name": "MemberApplied",
      "type": "event"
    },
    {
      "anonymous": false,
      "inputs": [
        {
          "indexed": false,
          "name": "memberAddress",
          "type": "address"
        },
        {
          "indexed": false,
          "name": "memberName",
          "type": "string"
        }
      ],
      "name": "MemberConfirmed",
      "type": "event"
    },
    {
      "anonymous": false,
      "inputs": [
        {
          "indexed": false,
          "name": "memberAddress",
          "type": "address"
        },
        {
          "indexed": false,
          "name": "newMemberName",
          "type": "string"
        }
      ],
      "name": "MemberNameChanged",
      "type": "event"
    },
    {
      "anonymous": false,
      "inputs": [
        {
          "indexed": false,
          "name": "memberAddress",
          "type": "address"
        },
        {
          "indexed": false,
          "name": "memberName",
          "type": "string"
        }
      ],
      "name": "MemberResigned",
      "type": "event"
    },
    {
      "anonymous": false,
      "inputs": [
        {
          "indexed": false,
          "name": "newBoardMemberAddresses",
          "type": "address[]"
        }
      ],
      "name": "BoardMembersChanged",
      "type": "event"
    },
    {
      "anonymous": false,
      "inputs": [
        {
          "indexed": false,
          "name": "newVotingContractAddress",
          "type": "address"
        }
      ],
      "name": "VotingContractAddressUpdated",
      "type": "event"
    },
    {
      "constant": true,
      "inputs": [],
      "name": "getNumberOfMembers",
      "outputs": [
        {
          "name": "",
          "type": "uint256"
        }
      ],
      "payable": false,
      "stateMutability": "view",
      "type": "function"
    },
    {
      "constant": false,
      "inputs": [
        {
          "name": "memberName",
          "type": "string"
        }
      ],
      "name": "applyForMembership",
      "outputs": [],
      "payable": false,
      "stateMutability": "nonpayable",
      "type": "function"
    },
    {
      "constant": false,
      "inputs": [
        {
          "name": "applicant",
          "type": "address"
        }
      ],
      "name": "confirmApplication",
      "outputs": [],
      "payable": false,
      "stateMutability": "nonpayable",
      "type": "function"
    },
    {
      "constant": true,
      "inputs": [
        {
          "name": "boardMember",
          "type": "address"
        },
        {
          "name": "applicant",
          "type": "address"
        }
      ],
      "name": "hasConfirmedApplicant",
      "outputs": [
        {
          "name": "",
          "type": "bool"
        }
      ],
      "payable": false,
      "stateMutability": "view",
      "type": "function"
    },
    {
      "constant": false,
      "inputs": [
        {
          "name": "newName",
          "type": "string"
        }
      ],
      "name": "changeName",
      "outputs": [],
      "payable": false,
      "stateMutability": "nonpayable",
      "type": "function"
    },
    {
      "constant": true,
      "inputs": [
        {
          "name": "memberAddress",
          "type": "address"
        }
      ],
      "name": "isRegularOrBoardMember",
      "outputs": [
        {
          "name": "",
          "type": "bool"
        }
      ],
      "payable": false,
      "stateMutability": "view",
      "type": "function"
    },
    {
      "constant": false,
      "inputs": [],
      "name": "resignOwnMembership",
      "outputs": [],
      "payable": false,
      "stateMutability": "nonpayable",
      "type": "function"
    },
    {
      "constant": false,
      "inputs": [
        {
          "name": "newBoardMembers",
          "type": "address[]"
        }
      ],
      "name": "replaceBoardMembers",
      "outputs": [],
      "payable": false,
      "stateMutability": "nonpayable",
      "type": "function"
    },
    {
      "constant": true,
      "inputs": [],
      "name": "getNumberOfEligibleMembers",
      "outputs": [
        {
          "name": "",
          "type": "uint256"
        }
      ],
      "payable": false,
      "stateMutability": "view",
      "type": "function"
    },
    {
      "constant": false,
      "inputs": [
        {
          "name": "newAddress",
          "type": "address"
        }
      ],
      "name": "setVotingContractAddress",
      "outputs": [],
      "payable": false,
      "stateMutability": "nonpayable",
      "type": "function"
    },
    {
      "constant": false,
      "inputs": [
        {
          "name": "newAddress",
          "type": "address"
        }
      ],
      "name": "updateVotingContractAddress",
      "outputs": [],
      "payable": false,
      "stateMutability": "nonpayable",
      "type": "function"
    },
    {
      "constant": false,
      "inputs": [],
      "name": "kill",
      "outputs": [],
      "payable": false,
      "stateMutability": "nonpayable",
      "type": "function"
    },
    {
      "constant": false,
      "inputs": [
        {
          "name": "oldAddress",
          "type": "address"
        },
        {
          "name": "newAddress",
          "type": "address"
        }
      ],
      "name": "replaceMemberAddress",
      "outputs": [],
      "payable": false,
      "stateMutability": "nonpayable",
      "type": "function"
    }
  ],
  "bytecode": "0x60806040523480156200001157600080fd5b50604051620028f3380380620028f3833981018060405260208110156200003757600080fd5b8101908080516401000000008111156200005057600080fd5b828101905060208101848111156200006757600080fd5b81518560208202830111640100000000821117156200008557600080fd5b505092919050505060008090505b81518110156200022a5760405180606001604052806040518060400160405280600381526020017f3f3f3f00000000000000000000000000000000000000000000000000000000008152508152602001600380811115620000f057fe5b815260200143815250600160008484815181106200010a57fe5b602002602001015173ffffffffffffffffffffffffffffffffffffffff1673ffffffffffffffffffffffffffffffffffffffff16815260200190815260200160002060008201518160000190805190602001906200016a92919062000272565b5060208201518160010160006101000a81548160ff021916908360038111156200019057fe5b0217905550604082015181600201559050506002828281518110620001b157fe5b602002602001015190806001815401808255809150509060018203906000526020600020016000909192909190916101000a81548173ffffffffffffffffffffffffffffffffffffffff021916908373ffffffffffffffffffffffffffffffffffffffff16021790555050808060010191505062000093565b50336000806101000a81548173ffffffffffffffffffffffffffffffffffffffff021916908373ffffffffffffffffffffffffffffffffffffffff1602179055505062000321565b828054600181600116156101000203166002900490600052602060002090601f016020900481019282601f10620002b557805160ff1916838001178555620002e6565b82800160010185558215620002e6579182015b82811115620002e5578251825591602001919060010190620002c8565b5b509050620002f59190620002f9565b5090565b6200031e91905b808211156200031a57600081600090555060010162000300565b5090565b90565b6125c280620003316000396000f3fe608060405234801561001057600080fd5b50600436106101005760003560e01c80638a31ffda11610097578063cc4e629911610066578063cc4e6299146105a5578063d3b302e714610613578063d56f279f146106ce578063fb213549146106d857610100565b80638a31ffda146104215780638b73a46b146104d9578063a2427cfa146104f7578063a90bc62c1461054157610100565b80635353a2d8116100d35780635353a2d8146102c057806362b08e701461037b578063638dd56a146103bf5780637cf2b9e4146103dd57610100565b806307a9d7a81461010557806308ae4b0c1461018157806324fe73fe1461025a57806341c0e1b5146102b6575b600080fd5b6101676004803603604081101561011b57600080fd5b81019080803573ffffffffffffffffffffffffffffffffffffffff169060200190929190803573ffffffffffffffffffffffffffffffffffffffff16906020019092919050505061071c565b604051808215151515815260200191505060405180910390f35b6101c36004803603602081101561019757600080fd5b81019080803573ffffffffffffffffffffffffffffffffffffffff169060200190929190505050610839565b60405180806020018460038111156101d757fe5b60ff168152602001838152602001828103825285818151815260200191508051906020019080838360005b8381101561021d578082015181840152602081019050610202565b50505050905090810190601f16801561024a5780820380516001836020036101000a031916815260200191505b5094505050505060405180910390f35b61029c6004803603602081101561027057600080fd5b81019080803573ffffffffffffffffffffffffffffffffffffffff169060200190929190505050610908565b604051808215151515815260200191505060405180910390f35b6102be61099f565b005b610379600480360360208110156102d657600080fd5b81019080803590602001906401000000008111156102f357600080fd5b82018360208201111561030557600080fd5b8035906020019184600183028401116401000000008311171561032757600080fd5b91908080601f016020809104026020016040519081016040528093929190818152602001838380828437600081840152601f19601f820116905080830192505050505050509192919290505050610a5d565b005b6103bd6004803603602081101561039157600080fd5b81019080803573ffffffffffffffffffffffffffffffffffffffff169060200190929190505050610b87565b005b6103c7610d1d565b6040518082815260200191505060405180910390f35b61041f600480360360208110156103f357600080fd5b81019080803573ffffffffffffffffffffffffffffffffffffffff169060200190929190505050610d95565b005b6104d76004803603602081101561043757600080fd5b810190808035906020019064010000000081111561045457600080fd5b82018360208201111561046657600080fd5b8035906020019184602083028401116401000000008311171561048857600080fd5b919080806020026020016040519081016040528093929190818152602001838360200280828437600081840152601f19601f820116905080830192505050505050509192919290505050610ee2565b005b6104e1611271565b6040518082815260200191505060405180910390f35b6104ff61127e565b604051808273ffffffffffffffffffffffffffffffffffffffff1673ffffffffffffffffffffffffffffffffffffffff16815260200191505060405180910390f35b6105a36004803603604081101561055757600080fd5b81019080803573ffffffffffffffffffffffffffffffffffffffff169060200190929190803573ffffffffffffffffffffffffffffffffffffffff1690602001909291905050506112a4565b005b6105d1600480360360208110156105bb57600080fd5b81019080803590602001909291905050506115af565b604051808273ffffffffffffffffffffffffffffffffffffffff1673ffffffffffffffffffffffffffffffffffffffff16815260200191505060405180910390f35b6106cc6004803603602081101561062957600080fd5b810190808035906020019064010000000081111561064657600080fd5b82018360208201111561065857600080fd5b8035906020019184600183028401116401000000008311171561067a57600080fd5b91908080601f016020809104026020016040519081016040528093929190818152602001838380828437600081840152601f19601f8201169050808301925050505050505091929192905050506115eb565b005b6106d661189c565b005b61071a600480360360208110156106ee57600080fd5b81019080803573ffffffffffffffffffffffffffffffffffffffff169060200190929190505050611c58565b005b600080600090505b600360008473ffffffffffffffffffffffffffffffffffffffff1673ffffffffffffffffffffffffffffffffffffffff1681526020019081526020016000208054905081101561082d578373ffffffffffffffffffffffffffffffffffffffff16600360008573ffffffffffffffffffffffffffffffffffffffff1673ffffffffffffffffffffffffffffffffffffffff16815260200190815260200160002082815481106107cf57fe5b9060005260206000200160009054906101000a900473ffffffffffffffffffffffffffffffffffffffff1673ffffffffffffffffffffffffffffffffffffffff161415610820576001915050610833565b8080600101915050610724565b50600090505b92915050565b6001602052806000526040600020600091509050806000018054600181600116156101000203166002900480601f0160208091040260200160405190810160405280929190818152602001828054600181600116156101000203166002900480156108e55780601f106108ba576101008083540402835291602001916108e5565b820191906000526020600020905b8154815290600101906020018083116108c857829003601f168201915b5050505050908060010160009054906101000a900460ff16908060020154905083565b600080600160008473ffffffffffffffffffffffffffffffffffffffff1673ffffffffffffffffffffffffffffffffffffffff16815260200190815260200160002060010160009054906101000a900460ff1690506002600381111561096a57fe5b81600381111561097657fe5b1480610997575060038081111561098957fe5b81600381111561099557fe5b145b915050919050565b6000809054906101000a900473ffffffffffffffffffffffffffffffffffffffff1673ffffffffffffffffffffffffffffffffffffffff163373ffffffffffffffffffffffffffffffffffffffff1614610a44576040517f08c379a00000000000000000000000000000000000000000000000000000000081526004018080602001828103825260258152602001806125476025913960400191505060405180910390fd5b3373ffffffffffffffffffffffffffffffffffffffff16ff5b80600160003373ffffffffffffffffffffffffffffffffffffffff1673ffffffffffffffffffffffffffffffffffffffff1681526020019081526020016000206000019080519060200190610ab3929190612195565b507f3e98438148beb76ce5b51e278c5a1987ff8f2f9c009ec80a1916a0136a1b16cf3382604051808373ffffffffffffffffffffffffffffffffffffffff1673ffffffffffffffffffffffffffffffffffffffff16815260200180602001828103825283818151815260200191508051906020019080838360005b83811015610b49578082015181840152602081019050610b2e565b50505050905090810190601f168015610b765780820380516001836020036101000a031916815260200191505b50935050505060405180910390a150565b6000809054906101000a900473ffffffffffffffffffffffffffffffffffffffff1673ffffffffffffffffffffffffffffffffffffffff163373ffffffffffffffffffffffffffffffffffffffff1614610c2c576040517f08c379a00000000000000000000000000000000000000000000000000000000081526004018080602001828103825260258152602001806125476025913960400191505060405180910390fd5b600073ffffffffffffffffffffffffffffffffffffffff16600460009054906101000a900473ffffffffffffffffffffffffffffffffffffffff1673ffffffffffffffffffffffffffffffffffffffff161415610cc95780600460006101000a81548173ffffffffffffffffffffffffffffffffffffffff021916908373ffffffffffffffffffffffffffffffffffffffff160217905550610d1a565b6040517f08c379a00000000000000000000000000000000000000000000000000000000081526004018080602001828103825260328152602001806124246032913960400191505060405180910390fd5b50565b6000806000905060008090505b6002805490508114610d8d57610d7660028281548110610d4657fe5b9060005260206000200160009054906101000a900473ffffffffffffffffffffffffffffffffffffffff16610908565b15610d82578160010191505b806001019050610d2a565b508091505090565b3373ffffffffffffffffffffffffffffffffffffffff16600460009054906101000a900473ffffffffffffffffffffffffffffffffffffffff1673ffffffffffffffffffffffffffffffffffffffff1614610e3b576040517f08c379a000000000000000000000000000000000000000000000000000000000815260040180806020018281038252603681526020018061247c6036913960400191505060405180910390fd5b80600460006101000a81548173ffffffffffffffffffffffffffffffffffffffff021916908373ffffffffffffffffffffffffffffffffffffffff1602179055507f448d0ba4967ea825cdc1d486b3c7c782f9e301208d72a732b0296310ac91e0f381604051808273ffffffffffffffffffffffffffffffffffffffff1673ffffffffffffffffffffffffffffffffffffffff16815260200191505060405180910390a150565b3373ffffffffffffffffffffffffffffffffffffffff16600460009054906101000a900473ffffffffffffffffffffffffffffffffffffffff1673ffffffffffffffffffffffffffffffffffffffff1614610f88576040517f08c379a000000000000000000000000000000000000000000000000000000000815260040180806020018281038252603681526020018061247c6036913960400191505060405180910390fd5b600081511415610fe3576040517f08c379a000000000000000000000000000000000000000000000000000000000815260040180806020018281038252602881526020018061251f6028913960400191505060405180910390fd5b60008090505b81518114611075576000151561101183838151811061100457fe5b6020026020010151610908565b1515141561106a576040517f08c379a00000000000000000000000000000000000000000000000000000000081526004018080602001828103825260228152602001806124fd6022913960400191505060405180910390fd5b806001019050610fe9565b5060008090505b6002805490508114611164576000600160006002848154811061109b57fe5b9060005260206000200160009054906101000a900473ffffffffffffffffffffffffffffffffffffffff1673ffffffffffffffffffffffffffffffffffffffff1673ffffffffffffffffffffffffffffffffffffffff168152602001908152602001600020905060038081111561110e57fe5b8160010160009054906101000a900460ff16600381111561112b57fe5b14156111585760028160010160006101000a81548160ff0219169083600381111561115257fe5b02179055505b5080600101905061107c565b5060008090505b815181146111f55760036001600084848151811061118557fe5b602002602001015173ffffffffffffffffffffffffffffffffffffffff1673ffffffffffffffffffffffffffffffffffffffff16815260200190815260200160002060010160006101000a81548160ff021916908360038111156111e557fe5b021790555080600101905061116b565b507f0c2914208d05d67f05f4f1c7e307d1bca8d81f9e458d168f7f67278bd59bf22f816040518080602001828103825283818151815260200191508051906020019060200280838360005b8381101561125b578082015181840152602081019050611240565b505050509050019250505060405180910390a150565b6000600280549050905090565b600460009054906101000a900473ffffffffffffffffffffffffffffffffffffffff1681565b6000809054906101000a900473ffffffffffffffffffffffffffffffffffffffff1673ffffffffffffffffffffffffffffffffffffffff163373ffffffffffffffffffffffffffffffffffffffff1614611349576040517f08c379a00000000000000000000000000000000000000000000000000000000081526004018080602001828103825260258152602001806125476025913960400191505060405180910390fd5b600160008373ffffffffffffffffffffffffffffffffffffffff1673ffffffffffffffffffffffffffffffffffffffff168152602001908152602001600020600160008373ffffffffffffffffffffffffffffffffffffffff1673ffffffffffffffffffffffffffffffffffffffff168152602001908152602001600020600082018160000190805460018160011615610100020316600290046113ee929190612215565b506001820160009054906101000a900460ff168160010160006101000a81548160ff0219169083600381111561142057fe5b021790555060028201548160020155905050600061143c611271565b905060008090505b81811461151c576002818154811061145857fe5b9060005260206000200160009054906101000a900473ffffffffffffffffffffffffffffffffffffffff1673ffffffffffffffffffffffffffffffffffffffff168473ffffffffffffffffffffffffffffffffffffffff1614156115115782600282815481106114c457fe5b9060005260206000200160006101000a81548173ffffffffffffffffffffffffffffffffffffffff021916908373ffffffffffffffffffffffffffffffffffffffff16021790555061151c565b806001019050611444565b50600360008473ffffffffffffffffffffffffffffffffffffffff1673ffffffffffffffffffffffffffffffffffffffff168152602001908152602001600020600360008473ffffffffffffffffffffffffffffffffffffffff1673ffffffffffffffffffffffffffffffffffffffff1681526020019081526020016000209080546115a992919061229c565b50505050565b600281815481106115bc57fe5b906000526020600020016000915054906101000a900473ffffffffffffffffffffffffffffffffffffffff1681565b600060038111156115f857fe5b600160003373ffffffffffffffffffffffffffffffffffffffff1673ffffffffffffffffffffffffffffffffffffffff16815260200190815260200160002060010160009054906101000a900460ff16600381111561165357fe5b146116a9576040517f08c379a00000000000000000000000000000000000000000000000000000000081526004018080602001828103825260248152602001806124d96024913960400191505060405180910390fd5b6040518060600160405280828152602001600160038111156116c757fe5b81526020016000815250600160003373ffffffffffffffffffffffffffffffffffffffff1673ffffffffffffffffffffffffffffffffffffffff168152602001908152602001600020600082015181600001908051906020019061172c9291906122ee565b5060208201518160010160006101000a81548160ff0219169083600381111561175157fe5b02179055506040820151816002015590505060023390806001815401808255809150509060018203906000526020600020016000909192909190916101000a81548173ffffffffffffffffffffffffffffffffffffffff021916908373ffffffffffffffffffffffffffffffffffffffff160217905550507fb7d4422fc3f1010ebe76723663ac8351360985ace0f2d0572e189a1e981fa0703382604051808373ffffffffffffffffffffffffffffffffffffffff1673ffffffffffffffffffffffffffffffffffffffff16815260200180602001828103825283818151815260200191508051906020019080838360005b8381101561185e578082015181840152602081019050611843565b50505050905090810190601f16801561188b5780820380516001836020036101000a031916815260200191505b50935050505060405180910390a150565b6118a533610908565b6118fa576040517f08c379a00000000000000000000000000000000000000000000000000000000081526004018080602001828103825260268152602001806124566026913960400191505060405180910390fd5b6001611904611271565b1415611978576040517f08c379a000000000000000000000000000000000000000000000000000000000815260040180806020018281038252601a8152602001807f4c617374206d656d6265722063616e6e6f742072657369676e2e00000000000081525060200191505060405180910390fd5b6000600160003373ffffffffffffffffffffffffffffffffffffffff1673ffffffffffffffffffffffffffffffffffffffff16815260200190815260200160002060010160006101000a81548160ff021916908360038111156119d757fe5b02179055506000600160003373ffffffffffffffffffffffffffffffffffffffff1673ffffffffffffffffffffffffffffffffffffffff16815260200190815260200160002060000190506000611a2c611271565b905060008090505b81811015611b6657600060028281548110611a4b57fe5b9060005260206000200160009054906101000a900473ffffffffffffffffffffffffffffffffffffffff1690503373ffffffffffffffffffffffffffffffffffffffff168173ffffffffffffffffffffffffffffffffffffffff161415611b585760026001840381548110611abc57fe5b9060005260206000200160009054906101000a900473ffffffffffffffffffffffffffffffffffffffff1660028381548110611af457fe5b9060005260206000200160006101000a81548173ffffffffffffffffffffffffffffffffffffffff021916908373ffffffffffffffffffffffffffffffffffffffff1602179055506002805480919060019003611b51919061236e565b5050611b66565b508080600101915050611a34565b507f832f17a4bed177ff984918804dfb5070e8c0b5b1a0f413e9a7e9317ba77850173383604051808373ffffffffffffffffffffffffffffffffffffffff1673ffffffffffffffffffffffffffffffffffffffff16815260200180602001828103825283818154600181600116156101000203166002900481526020019150805460018160011615610100020316600290048015611c455780601f10611c1a57610100808354040283529160200191611c45565b820191906000526020600020905b815481529060010190602001808311611c2857829003601f168201915b5050935050505060405180910390a15050565b600380811115611c6457fe5b600160003373ffffffffffffffffffffffffffffffffffffffff1673ffffffffffffffffffffffffffffffffffffffff16815260200190815260200160002060010160009054906101000a900460ff166003811115611cbf57fe5b14611d15576040517f08c379a000000000000000000000000000000000000000000000000000000000815260040180806020018281038252602b81526020018061256c602b913960400191505060405180910390fd5b60016003811115611d2257fe5b600160008373ffffffffffffffffffffffffffffffffffffffff1673ffffffffffffffffffffffffffffffffffffffff16815260200190815260200160002060010160009054906101000a900460ff166003811115611d7d57fe5b14611dd3576040517f08c379a00000000000000000000000000000000000000000000000000000000081526004018080602001828103825260278152602001806124b26027913960400191505060405180910390fd5b600360008273ffffffffffffffffffffffffffffffffffffffff1673ffffffffffffffffffffffffffffffffffffffff1681526020019081526020016000203390806001815401808255809150509060018203906000526020600020016000909192909190916101000a81548173ffffffffffffffffffffffffffffffffffffffff021916908373ffffffffffffffffffffffffffffffffffffffff1602179055505060006001905060008090505b611e8a611271565b811015611f6557600060028281548110611ea057fe5b9060005260206000200160009054906101000a900473ffffffffffffffffffffffffffffffffffffffff169050600380811115611ed957fe5b600160008373ffffffffffffffffffffffffffffffffffffffff1673ffffffffffffffffffffffffffffffffffffffff16815260200190815260200160002060010160009054906101000a900460ff166003811115611f3457fe5b148015611f485750611f46818561071c565b155b15611f57576000925050611f65565b508080600101915050611e82565b508015612191576002600160008473ffffffffffffffffffffffffffffffffffffffff1673ffffffffffffffffffffffffffffffffffffffff16815260200190815260200160002060010160006101000a81548160ff02191690836003811115611fcb57fe5b021790555043600160008473ffffffffffffffffffffffffffffffffffffffff1673ffffffffffffffffffffffffffffffffffffffff16815260200190815260200160002060020181905550600360008373ffffffffffffffffffffffffffffffffffffffff1673ffffffffffffffffffffffffffffffffffffffff1681526020019081526020016000206000612062919061239a565b7f347c3a632c6d9e8d0b4bb1cda4e79978a18cb3b667f12dc3ee34f561f4198a3a82600160008573ffffffffffffffffffffffffffffffffffffffff1673ffffffffffffffffffffffffffffffffffffffff168152602001908152602001600020600001604051808373ffffffffffffffffffffffffffffffffffffffff1673ffffffffffffffffffffffffffffffffffffffff168152602001806020018281038252838181546001816001161561010002031660029004815260200191508054600181600116156101000203166002900480156121815780601f1061215657610100808354040283529160200191612181565b820191906000526020600020905b81548152906001019060200180831161216457829003601f168201915b5050935050505060405180910390a15b5050565b828054600181600116156101000203166002900490600052602060002090601f016020900481019282601f106121d657805160ff1916838001178555612204565b82800160010185558215612204579182015b828111156122035782518255916020019190600101906121e8565b5b50905061221191906123bb565b5090565b828054600181600116156101000203166002900490600052602060002090601f016020900481019282601f1061224e578054855561228b565b8280016001018555821561228b57600052602060002091601f016020900482015b8281111561228a57825482559160010191906001019061226f565b5b50905061229891906123bb565b5090565b8280548282559060005260206000209081019282156122dd5760005260206000209182015b828111156122dc5782548255916001019190600101906122c1565b5b5090506122ea91906123e0565b5090565b828054600181600116156101000203166002900490600052602060002090601f016020900481019282601f1061232f57805160ff191683800117855561235d565b8280016001018555821561235d579182015b8281111561235c578251825591602001919060010190612341565b5b50905061236a91906123bb565b5090565b8154818355818111156123955781836000526020600020918201910161239491906123bb565b5b505050565b50805460008255906000526020600020908101906123b891906123bb565b50565b6123dd91905b808211156123d95760008160009055506001016123c1565b5090565b90565b61242091905b8082111561241c57600081816101000a81549073ffffffffffffffffffffffffffffffffffffffff0219169055506001016123e6565b5090565b9056fe566f74696e6720636f6e747261637420616464726573732063616e206f6e6c792062652073657420696e697469616c6c792e4d7573742062652061206d656d62657220746f2072657369676e206d656d626572736869702e53656e646572206164647265737320646f6573206e6f7420657175616c20766f74696e6720636f6e747261637420616464726573732e4170706c6963616e7420646f6573206e6f74206861766520737461747573204150504c4945442e53656e646572207365656d7320746f2062652061206d656d62657220616c72656164792e4e657720626f617264206d656d626572206d7573742062652061206d656d6265722e5468657265206d757374206265206174206c65617374206f6e6520626f617264206d656d6265722e53656e64657220646f6573206e6f7420657175616c20636f6e7472616374206f776e65722e4f6e6c7920626f617264206d656d626572732063616e20636f6e6669726d206170706c69636174696f6e2ea165627a7a723058200407b514010d2a36f452dae9b66bd02dd2bbe674dd451f5a57bc1d3267bce1ab0029",
  "source": "pragma solidity ^0.5.0;\r\n\r\ncontract Members {\r\n\r\n    event MemberApplied(address applicantAddress, string applicantName);\r\n    event MemberConfirmed(address memberAddress, string memberName);\r\n    event MemberNameChanged(address memberAddress, string newMemberName);\r\n    event MemberResigned(address memberAddress, string memberName);\r\n    event BoardMembersChanged(address[] newBoardMemberAddresses);\r\n    event VotingContractAddressUpdated(address newVotingContractAddress);\r\n\r\n    address owner;\r\n\r\n    enum MemberStatus {\r\n          // not a member or applicant\r\n        NONE,\r\n        // account applied for membership\r\n        APPLIED,\r\n        // regular, confirmed member\r\n        REGULAR,\r\n        // member with board voting rights\r\n        BOARD\r\n    }\r\n\r\n    struct Member {\r\n        string name;\r\n        MemberStatus status;\r\n        uint entryBlock;\r\n    }\r\n\r\n    mapping (address => Member) public members;\r\n    address[] public memberAddresses;\r\n\r\n    mapping (address => address[]) confirmations;\r\n\r\n    address public votingContractAddress;\r\n\r\n    constructor(address[] memory initialMemberAddresses) public {\r\n        for (uint index = 0; index < initialMemberAddresses.length; index++) {\r\n            // all initial members are board members\r\n            members[initialMemberAddresses[index]] = Member({name: \"???\", status: MemberStatus.BOARD, entryBlock: block.number});\r\n            memberAddresses.push(initialMemberAddresses[index]);\r\n        }\r\n        owner = msg.sender;\r\n    }\r\n\r\n    modifier onlyOwner() {\r\n        require(msg.sender == owner, \"Sender does not equal contract owner.\");\r\n        _;\r\n    }\r\n\r\n    modifier onlyVotingContract() {\r\n        require (votingContractAddress == msg.sender, \"Sender address does not equal voting contract address.\");\r\n        _;\r\n    }\r\n\r\n    function getNumberOfMembers() public view returns (uint) {\r\n        return memberAddresses.length;\r\n    }\r\n\r\n    function applyForMembership(string memory memberName) public {\r\n        require (members[msg.sender].status == MemberStatus.NONE, \"Sender seems to be a member already.\");\r\n        members[msg.sender] = Member({name: memberName, status: MemberStatus.APPLIED, entryBlock: 0});\r\n        memberAddresses.push(msg.sender);\r\n        emit MemberApplied(msg.sender, memberName);\r\n    }\r\n\r\n    function confirmApplication(address applicant) public {\r\n        require (members[msg.sender].status == MemberStatus.BOARD, \"Only board members can confirm application.\");\r\n        require (members[applicant].status == MemberStatus.APPLIED, \"Applicant does not have status APPLIED.\");\r\n        confirmations[applicant].push(msg.sender);\r\n        bool allBoardMembersConfirmed = true;\r\n        for (uint index = 0; index < getNumberOfMembers(); index++) {\r\n            address memberAddress = memberAddresses[index];\r\n            if (members[memberAddress].status == MemberStatus.BOARD && !hasConfirmedApplicant(memberAddress, applicant)) {\r\n                allBoardMembersConfirmed = false;\r\n                break;\r\n            }\r\n        }\r\n        if (allBoardMembersConfirmed) {\r\n            members[applicant].status = MemberStatus.REGULAR;\r\n            members[applicant].entryBlock = block.number;\r\n            delete confirmations[applicant];\r\n            emit MemberConfirmed(applicant, members[applicant].name);\r\n        }\r\n    }\r\n\r\n    function hasConfirmedApplicant(address boardMember, address applicant) public view returns (bool) {\r\n        for (uint index = 0; index < confirmations[applicant].length; index++) {\r\n            if (confirmations[applicant][index] == boardMember)\r\n                return true;\r\n        }\r\n        return false;\r\n    }\r\n\r\n    function changeName(string memory newName) public {\r\n        members[msg.sender].name = newName;\r\n        emit MemberNameChanged(msg.sender, newName);\r\n        \r\n    }\r\n\r\n    function isRegularOrBoardMember(address memberAddress) public view returns (bool) {\r\n        MemberStatus status = members[memberAddress].status;\r\n        return status == MemberStatus.REGULAR || status == MemberStatus.BOARD;\r\n    }\r\n\r\n    /**\r\n     * Resign membership - Deletes sender address from list of members \r\n     * (as long as it is not the last remaining member)\r\n     */\r\n    function resignOwnMembership() public {\r\n        require(isRegularOrBoardMember(msg.sender), \"Must be a member to resign membership.\");\r\n    \r\n        // don't allow last man standing to resign\r\n        if (getNumberOfMembers() == 1) {\r\n            revert(\"Last member cannot resign.\");\r\n        }\r\n\r\n        // reset membership status\r\n        members[msg.sender].status = MemberStatus.NONE;\r\n        string storage memberName = members[msg.sender].name;\r\n        \r\n        // delete address of (ex) member from list of member addresses\r\n        uint numberOfMembers = getNumberOfMembers();\r\n        for (uint index = 0; index < numberOfMembers; index++) {\r\n            address memberAddress = memberAddresses[index];\r\n            if (memberAddress == msg.sender) {\r\n                // delete by replacing item with last element of the array\r\n                memberAddresses[index] = memberAddresses[numberOfMembers-1];\r\n                memberAddresses.length--;\r\n                break;\r\n            }\r\n        }\r\n\r\n        emit MemberResigned(msg.sender, memberName);\r\n    }\r\n\r\n    /**\r\n     * Instantiates new board members.\r\n     */\r\n    function replaceBoardMembers(address[] memory newBoardMembers) public onlyVotingContract {\r\n\r\n        // this is redundant:\r\n        // It should not even be possible to have a board member vote with no board members to be instantiated\r\n        if (newBoardMembers.length == 0) {\r\n            revert(\"There must be at least one board member.\");\r\n        }\r\n\r\n        // check if new board members are already a member.\r\n        for (uint i = 0; i != newBoardMembers.length; ++i) {\r\n            if (isRegularOrBoardMember(newBoardMembers[i]) == false) {\r\n                revert(\"New board member must be a member.\");\r\n            }\r\n        }\r\n\r\n        // reset board members to regular members\r\n        for (uint i = 0; i != memberAddresses.length; ++i) {\r\n            Member storage member = members[memberAddresses[i]];\r\n            if (member.status == MemberStatus.BOARD) {\r\n                member.status = MemberStatus.REGULAR;\r\n            }\r\n        }   \r\n\r\n        // instantiate new board members\r\n        for (uint i = 0; i != newBoardMembers.length; ++i) {\r\n            members[newBoardMembers[i]].status = MemberStatus.BOARD;\r\n        }\r\n\r\n        emit BoardMembersChanged(newBoardMembers);\r\n    } \r\n\r\n    /**\r\n     * Eligible members are members allowed to vote: board members or regular members\r\n     */\r\n    function getNumberOfEligibleMembers() public view returns (uint) {\r\n        uint numberOfMembers = 0;\r\n        for (uint i = 0; i != memberAddresses.length; ++i) {\r\n            if (isRegularOrBoardMember(memberAddresses[i])) {\r\n                ++numberOfMembers;\r\n            }\r\n        }\r\n        return numberOfMembers;\r\n    }\r\n\r\n    /**\r\n     * Initially set contract address\r\n     */\r\n    function setVotingContractAddress(address newAddress) public onlyOwner {\r\n        if (votingContractAddress == address(0)) {\r\n            votingContractAddress = newAddress;\r\n        } else {\r\n            revert(\"Voting contract address can only be set initially.\");\r\n        }\r\n    }\r\n\r\n    /**\r\n     * Voting contract can update its address after a vote.\r\n     */\r\n    function updateVotingContractAddress(address newAddress) public onlyVotingContract {\r\n        votingContractAddress = newAddress;\r\n        emit VotingContractAddressUpdated(newAddress);\r\n    }\r\n\r\n    /**\r\n     * Kill switch.\r\n     */\r\n    function kill() public onlyOwner {\r\n        selfdestruct(msg.sender);\r\n    }\r\n\r\n    /**\r\n     * Replace address\r\n     */\r\n    function replaceMemberAddress(address oldAddress, address newAddress) public onlyOwner {\r\n\r\n        // replace item in list of members\r\n        members[newAddress] = members[oldAddress];\r\n        \r\n        // replace item in list of member addresses\r\n        uint numberOfMembers = getNumberOfMembers();\r\n        for (uint i = 0; i != numberOfMembers; ++i) {\r\n            if (oldAddress == memberAddresses[i]) {\r\n                memberAddresses[i] = newAddress;\r\n                break;\r\n            }\r\n        }\r\n\r\n        // replace item in confirmations of user\r\n        confirmations[newAddress] = confirmations[oldAddress];\r\n    }\r\n}\r\n",
  "sourcePath": "/ethverein/src/contracts/Members.sol",
  "compiler": {
    "name": "solc",
    "version": "0.5.8+commit.23d335f2.Emscripten.clang"
  },
  "schemaVersion": "3.0.15",
  "updatedAt": "2019-09-10T12:32:22.241Z",
  "devdoc": {
    "methods": {}
  },
  "userdoc": {
    "methods": {
      "getNumberOfEligibleMembers()": {
        "notice": "Eligible members are members allowed to vote: board members or regular members\r"
      },
      "kill()": {
        "notice": "Kill switch.\r"
      },
      "replaceBoardMembers(address[])": {
        "notice": "Instantiates new board members.\r"
      },
      "replaceMemberAddress(address,address)": {
        "notice": "Replace address\r"
      },
      "resignOwnMembership()": {
        "notice": "Resign membership - Deletes sender address from list of members \r (as long as it is not the last remaining member)\r"
      },
      "setVotingContractAddress(address)": {
        "notice": "Initially set contract address\r"
      },
      "updateVotingContractAddress(address)": {
        "notice": "Voting contract can update its address after a vote.\r"
      }
    }
  }
}