{
  "contractName": "Voting",
  "abi": [
    {
      "inputs": [
        {
          "name": "membersContractAddress",
          "type": "address"
        }
      ],
      "payable": false,
      "stateMutability": "nonpayable",
      "type": "constructor"
    },
    {
      "anonymous": false,
      "inputs": [
        {
          "indexed": false,
          "name": "voteId",
          "type": "uint256"
        },
        {
          "indexed": false,
          "name": "voteType",
          "type": "uint256"
        }
      ],
      "name": "VoteCreated",
      "type": "event"
    },
    {
      "anonymous": false,
      "inputs": [
        {
          "indexed": false,
          "name": "voteId",
          "type": "uint256"
        },
        {
          "indexed": false,
          "name": "voter",
          "type": "address"
        }
      ],
      "name": "VoteCast",
      "type": "event"
    },
    {
      "anonymous": false,
      "inputs": [
        {
          "indexed": false,
          "name": "voteId",
          "type": "uint256"
        },
        {
          "indexed": false,
          "name": "outcome",
          "type": "uint256"
        }
      ],
      "name": "VoteClosed",
      "type": "event"
    },
    {
      "anonymous": false,
      "inputs": [
        {
          "indexed": false,
          "name": "voteId",
          "type": "uint256"
        }
      ],
      "name": "VoteCanceled",
      "type": "event"
    },
    {
      "constant": false,
      "inputs": [
        {
          "name": "name",
          "type": "string"
        },
        {
          "name": "documentHash",
          "type": "bytes32"
        },
        {
          "name": "newBoardMembers",
          "type": "address[]"
        }
      ],
      "name": "initiateBoardMemberVote",
      "outputs": [
        {
          "name": "",
          "type": "uint256"
        }
      ],
      "payable": false,
      "stateMutability": "nonpayable",
      "type": "function"
    },
    {
      "constant": false,
      "inputs": [
        {
          "name": "name",
          "type": "string"
        },
        {
          "name": "documentHash",
          "type": "bytes32"
        }
      ],
      "name": "initiateDocumentVote",
      "outputs": [
        {
          "name": "",
          "type": "uint256"
        }
      ],
      "payable": false,
      "stateMutability": "nonpayable",
      "type": "function"
    },
    {
      "constant": false,
      "inputs": [
        {
          "name": "name",
          "type": "string"
        },
        {
          "name": "newContractAddress",
          "type": "address"
        }
      ],
      "name": "initiateVotingContractUpdateVote",
      "outputs": [
        {
          "name": "",
          "type": "uint256"
        }
      ],
      "payable": false,
      "stateMutability": "nonpayable",
      "type": "function"
    },
    {
      "constant": false,
      "inputs": [
        {
          "name": "voteId",
          "type": "uint256"
        },
        {
          "name": "decision",
          "type": "bool"
        }
      ],
      "name": "castVote",
      "outputs": [],
      "payable": false,
      "stateMutability": "nonpayable",
      "type": "function"
    },
    {
      "constant": true,
      "inputs": [],
      "name": "getNumberOfVotes",
      "outputs": [
        {
          "name": "",
          "type": "uint256"
        }
      ],
      "payable": false,
      "stateMutability": "view",
      "type": "function"
    },
    {
      "constant": true,
      "inputs": [
        {
          "name": "voteId",
          "type": "uint256"
        }
      ],
      "name": "getVoteDetails",
      "outputs": [
        {
          "name": "",
          "type": "string"
        },
        {
          "name": "",
          "type": "uint256"
        },
        {
          "name": "",
          "type": "bytes32"
        },
        {
          "name": "",
          "type": "uint256"
        },
        {
          "name": "",
          "type": "address[]"
        },
        {
          "name": "",
          "type": "address"
        },
        {
          "name": "",
          "type": "address[]"
        },
        {
          "name": "",
          "type": "address"
        },
        {
          "name": "",
          "type": "uint256"
        }
      ],
      "payable": false,
      "stateMutability": "view",
      "type": "function"
    },
    {
      "constant": false,
      "inputs": [
        {
          "name": "voteId",
          "type": "uint256"
        }
      ],
      "name": "closeVote",
      "outputs": [],
      "payable": false,
      "stateMutability": "nonpayable",
      "type": "function"
    },
    {
      "constant": true,
      "inputs": [
        {
          "name": "voteId",
          "type": "uint256"
        }
      ],
      "name": "computeVoteOutcome",
      "outputs": [
        {
          "name": "",
          "type": "uint256"
        }
      ],
      "payable": false,
      "stateMutability": "view",
      "type": "function"
    },
    {
      "constant": false,
      "inputs": [
        {
          "name": "voteId",
          "type": "uint256"
        }
      ],
      "name": "cancelVote",
      "outputs": [],
      "payable": false,
      "stateMutability": "nonpayable",
      "type": "function"
    }
  ],
  "bytecode": "0x608060405234801561001057600080fd5b506040516020806129c68339810180604052602081101561003057600080fd5b8101908080519060200190929190505050806000806101000a81548173ffffffffffffffffffffffffffffffffffffffff021916908373ffffffffffffffffffffffffffffffffffffffff16021790555050612935806100916000396000f3fe608060405234801561001057600080fd5b50600436106100935760003560e01c8063591988271161006657806359198827146103bc5780636e48a035146104955780638a61bb91146104c3578063bacbe2da14610630578063cee024dc1461065e57610093565b8063062907d51461009857806315373e3d14610187578063249559ad146101c157806354a1b43114610203575b600080fd5b610171600480360360408110156100ae57600080fd5b81019080803590602001906401000000008111156100cb57600080fd5b8201836020820111156100dd57600080fd5b803590602001918460018302840111640100000000831117156100ff57600080fd5b91908080601f016020809104026020016040519081016040528093929190818152602001838380828437600081840152601f19601f820116905080830192505050505050509192919290803573ffffffffffffffffffffffffffffffffffffffff16906020019092919050505061067c565b6040518082815260200191505060405180910390f35b6101bf6004803603604081101561019d57600080fd5b8101908080359060200190929190803515159060200190929190505050610b11565b005b6101ed600480360360208110156101d757600080fd5b8101908080359060200190929190505050610fbf565b6040518082815260200191505060405180910390f35b61022f6004803603602081101561021957600080fd5b8101908080359060200190929190505050610ffb565b60405180806020018a8152602001898152602001888152602001806020018773ffffffffffffffffffffffffffffffffffffffff1673ffffffffffffffffffffffffffffffffffffffff168152602001806020018673ffffffffffffffffffffffffffffffffffffffff1673ffffffffffffffffffffffffffffffffffffffff16815260200185815260200184810384528d818151815260200191508051906020019080838360005b838110156102f35780820151818401526020810190506102d8565b50505050905090810190601f1680156103205780820380516001836020036101000a031916815260200191505b50848103835289818151815260200191508051906020019060200280838360005b8381101561035c578082015181840152602081019050610341565b50505050905001848103825287818151815260200191508051906020019060200280838360005b8381101561039e578082015181840152602081019050610383565b505050509050019c5050505050505050505050505060405180910390f35b61047f600480360360408110156103d257600080fd5b81019080803590602001906401000000008111156103ef57600080fd5b82018360208201111561040157600080fd5b8035906020019184600183028401116401000000008311171561042357600080fd5b91908080601f016020809104026020016040519081016040528093929190818152602001838380828437600081840152601f19601f82011690508083019250505050505050919291929080359060200190929190505050611290565b6040518082815260200191505060405180910390f35b6104c1600480360360208110156104ab57600080fd5b810190808035906020019092919050505061169f565b005b61061a600480360360608110156104d957600080fd5b81019080803590602001906401000000008111156104f657600080fd5b82018360208201111561050857600080fd5b8035906020019184600183028401116401000000008311171561052a57600080fd5b91908080601f016020809104026020016040519081016040528093929190818152602001838380828437600081840152601f19601f820116905080830192505050505050509192919290803590602001909291908035906020019064010000000081111561059757600080fd5b8201836020820111156105a957600080fd5b803590602001918460208302840111640100000000831117156105cb57600080fd5b919080806020026020016040519081016040528093929190818152602001838360200280828437600081840152601f19601f820116905080830192505050505050509192919290505050611c55565b6040518082815260200191505060405180910390f35b61065c6004803603602081101561064657600080fd5b8101908080359060200190929190505050612090565b005b61066661244d565b6040518082815260200191505060405180910390f35b60008060009054906101000a900473ffffffffffffffffffffffffffffffffffffffff1673ffffffffffffffffffffffffffffffffffffffff166324fe73fe336040518263ffffffff1660e01b8152600401808273ffffffffffffffffffffffffffffffffffffffff1673ffffffffffffffffffffffffffffffffffffffff16815260200191505060206040518083038186803b15801561071c57600080fd5b505afa158015610730573d6000803e3d6000fd5b505050506040513d602081101561074657600080fd5b81019080805190602001909291905050506107c9576040517f08c379a00000000000000000000000000000000000000000000000000000000081526004018080602001828103825260168152602001807f53656e646572206973206e6f742061206d656d6265720000000000000000000081525060200191505060405180910390fd5b600073ffffffffffffffffffffffffffffffffffffffff168273ffffffffffffffffffffffffffffffffffffffff16141561084f576040517f08c379a000000000000000000000000000000000000000000000000000000000815260040180806020018281038252602981526020018061287a6029913960400191505060405180910390fd5b600160405180610120016040528085815260200160038081111561086f57fe5b81526020016000801b81526020016001600381111561088a57fe5b815260200160006040519080825280602002602001820160405280156108bf5781602001602082028038833980820191505090505b50815260200160006040519080825280602002602001820160405280156108f55781602001602082028038833980820191505090505b5081526020018473ffffffffffffffffffffffffffffffffffffffff1681526020013373ffffffffffffffffffffffffffffffffffffffff168152602001438152509080600181540180825580915050906001820390600052602060002090600a020160009091929091909150600082015181600001908051906020019061097e92919061269f565b5060208201518160010160006101000a81548160ff021916908360038111156109a357fe5b02179055506040820151816002015560608201518160030160006101000a81548160ff021916908360038111156109d657fe5b021790555060808201518160050190805190602001906109f792919061271f565b5060a0820151816006019080519060200190610a1492919061271f565b5060c08201518160070160006101000a81548173ffffffffffffffffffffffffffffffffffffffff021916908373ffffffffffffffffffffffffffffffffffffffff16021790555060e08201518160080160006101000a81548173ffffffffffffffffffffffffffffffffffffffff021916908373ffffffffffffffffffffffffffffffffffffffff16021790555061010082015181600901555050506000600180805490500390507ff558b17e24256d39da5ae39993b5a201700ef76769a6067cb8d1d33f769a3bc181600380811115610aeb57fe5b604051808381526020018281526020019250505060405180910390a18091505092915050565b6000809054906101000a900473ffffffffffffffffffffffffffffffffffffffff1673ffffffffffffffffffffffffffffffffffffffff166324fe73fe336040518263ffffffff1660e01b8152600401808273ffffffffffffffffffffffffffffffffffffffff1673ffffffffffffffffffffffffffffffffffffffff16815260200191505060206040518083038186803b158015610baf57600080fd5b505afa158015610bc3573d6000803e3d6000fd5b505050506040513d6020811015610bd957600080fd5b8101908080519060200190929190505050610c5c576040517f08c379a00000000000000000000000000000000000000000000000000000000081526004018080602001828103825260168152602001807f53656e646572206973206e6f742061206d656d6265720000000000000000000081525060200191505060405180910390fd5b8160016003811115610c6a57fe5b60018281548110610c7757fe5b90600052602060002090600a020160030160009054906101000a900460ff166003811115610ca157fe5b14610d14576040517f08c379a00000000000000000000000000000000000000000000000000000000081526004018080602001828103825260108152602001807f566f7465206973206e6f74206f70656e0000000000000000000000000000000081525060200191505060405180910390fd5b600060018481548110610d2357fe5b90600052602060002090600a0201905060006002811115610d4057fe5b8160040160003373ffffffffffffffffffffffffffffffffffffffff1673ffffffffffffffffffffffffffffffffffffffff16815260200190815260200160002060009054906101000a900460ff166002811115610d9a57fe5b14610e0d576040517f08c379a000000000000000000000000000000000000000000000000000000000815260040180806020018281038252601b8152602001807f566f7465206f7574636f6d6520697320616c726561647920736574000000000081525060200191505060405180910390fd5b600115158315151415610e825760018160040160003373ffffffffffffffffffffffffffffffffffffffff1673ffffffffffffffffffffffffffffffffffffffff16815260200190815260200160002060006101000a81548160ff02191690836002811115610e7857fe5b0217905550610ee6565b60028160040160003373ffffffffffffffffffffffffffffffffffffffff1673ffffffffffffffffffffffffffffffffffffffff16815260200190815260200160002060006101000a81548160ff02191690836002811115610ee057fe5b02179055505b806005013390806001815401808255809150509060018203906000526020600020016000909192909190916101000a81548173ffffffffffffffffffffffffffffffffffffffff021916908373ffffffffffffffffffffffffffffffffffffffff160217905550507ff1003b73c437642c0460aee9cd9628b0b8c447b66e6c7c905531b9c644214a118433604051808381526020018273ffffffffffffffffffffffffffffffffffffffff1673ffffffffffffffffffffffffffffffffffffffff1681526020019250505060405180910390a150505050565b600080610fe560018481548110610fd257fe5b90600052602060002090600a020161245a565b9050806002811115610ff357fe5b915050919050565b60606000806000606060006060600080600060018b8154811061101a57fe5b90600052602060002090600a02019050806000018160010160009054906101000a900460ff16600381111561104b57fe5b82600201548360030160009054906101000a900460ff16600381111561106d57fe5b846006018560070160009054906101000a900473ffffffffffffffffffffffffffffffffffffffff16866005018760080160009054906101000a900473ffffffffffffffffffffffffffffffffffffffff168860090154888054600181600116156101000203166002900480601f0160208091040260200160405190810160405280929190818152602001828054600181600116156101000203166002900480156111595780601f1061112e57610100808354040283529160200191611159565b820191906000526020600020905b81548152906001019060200180831161113c57829003601f168201915b50505050509850848054806020026020016040519081016040528092919081815260200182805480156111e157602002820191906000526020600020905b8160009054906101000a900473ffffffffffffffffffffffffffffffffffffffff1673ffffffffffffffffffffffffffffffffffffffff1681526020019060010190808311611197575b505050505094508280548060200260200160405190810160405280929190818152602001828054801561126957602002820191906000526020600020905b8160009054906101000a900473ffffffffffffffffffffffffffffffffffffffff1673ffffffffffffffffffffffffffffffffffffffff168152602001906001019080831161121f575b50505050509250995099509950995099509950995099509950509193959799909294969850565b60008060009054906101000a900473ffffffffffffffffffffffffffffffffffffffff1673ffffffffffffffffffffffffffffffffffffffff166324fe73fe336040518263ffffffff1660e01b8152600401808273ffffffffffffffffffffffffffffffffffffffff1673ffffffffffffffffffffffffffffffffffffffff16815260200191505060206040518083038186803b15801561133057600080fd5b505afa158015611344573d6000803e3d6000fd5b505050506040513d602081101561135a57600080fd5b81019080805190602001909291905050506113dd576040517f08c379a00000000000000000000000000000000000000000000000000000000081526004018080602001828103825260168152602001807f53656e646572206973206e6f742061206d656d6265720000000000000000000081525060200191505060405180910390fd5b6001604051806101200160405280858152602001600160038111156113fe57fe5b81526020018481526020016001600381111561141657fe5b8152602001600060405190808252806020026020018201604052801561144b5781602001602082028038833980820191505090505b50815260200160006040519080825280602002602001820160405280156114815781602001602082028038833980820191505090505b508152602001600073ffffffffffffffffffffffffffffffffffffffff1681526020013373ffffffffffffffffffffffffffffffffffffffff168152602001438152509080600181540180825580915050906001820390600052602060002090600a020160009091929091909150600082015181600001908051906020019061150b92919061269f565b5060208201518160010160006101000a81548160ff0219169083600381111561153057fe5b02179055506040820151816002015560608201518160030160006101000a81548160ff0219169083600381111561156357fe5b0217905550608082015181600501908051906020019061158492919061271f565b5060a08201518160060190805190602001906115a192919061271f565b5060c08201518160070160006101000a81548173ffffffffffffffffffffffffffffffffffffffff021916908373ffffffffffffffffffffffffffffffffffffffff16021790555060e08201518160080160006101000a81548173ffffffffffffffffffffffffffffffffffffffff021916908373ffffffffffffffffffffffffffffffffffffffff16021790555061010082015181600901555050506000600180805490500390507ff558b17e24256d39da5ae39993b5a201700ef76769a6067cb8d1d33f769a3bc1816001600381111561167957fe5b604051808381526020018281526020019250505060405180910390a18091505092915050565b6000809054906101000a900473ffffffffffffffffffffffffffffffffffffffff1673ffffffffffffffffffffffffffffffffffffffff166324fe73fe336040518263ffffffff1660e01b8152600401808273ffffffffffffffffffffffffffffffffffffffff1673ffffffffffffffffffffffffffffffffffffffff16815260200191505060206040518083038186803b15801561173d57600080fd5b505afa158015611751573d6000803e3d6000fd5b505050506040513d602081101561176757600080fd5b81019080805190602001909291905050506117ea576040517f08c379a00000000000000000000000000000000000000000000000000000000081526004018080602001828103825260168152602001807f53656e646572206973206e6f742061206d656d6265720000000000000000000081525060200191505060405180910390fd5b80600160038111156117f857fe5b6001828154811061180557fe5b90600052602060002090600a020160030160009054906101000a900460ff16600381111561182f57fe5b146118a2576040517f08c379a00000000000000000000000000000000000000000000000000000000081526004018080602001828103825260108152602001807f566f7465206973206e6f74206f70656e0000000000000000000000000000000081525060200191505060405180910390fd5b6000600183815481106118b157fe5b90600052602060002090600a0201905060006118cc8261245a565b9050600060028111156118db57fe5b8160028111156118e757fe5b141561195b576040517f08c379a00000000000000000000000000000000000000000000000000000000081526004018080602001828103825260198152602001807f4e6f20766f746520726573756c7420657869737473207965740000000000000081525060200191505060405180910390fd5b60028260030160006101000a81548160ff0219169083600381111561197c57fe5b02179055506001600281111561198e57fe5b81600281111561199a57fe5b1480156119ce5750600260038111156119af57fe5b8260010160009054906101000a900460ff1660038111156119cc57fe5b145b15611ad7576000809054906101000a900473ffffffffffffffffffffffffffffffffffffffff1673ffffffffffffffffffffffffffffffffffffffff16638a31ffda836006016040518263ffffffff1660e01b815260040180806020018281038252838181548152602001915080548015611a9e57602002820191906000526020600020905b8160009054906101000a900473ffffffffffffffffffffffffffffffffffffffff1673ffffffffffffffffffffffffffffffffffffffff1681526020019060010190808311611a54575b505092505050600060405180830381600087803b158015611abe57600080fd5b505af1158015611ad2573d6000803e3d6000fd5b505050505b60016002811115611ae457fe5b816002811115611af057fe5b148015611b235750600380811115611b0457fe5b8260010160009054906101000a900460ff166003811115611b2157fe5b145b15611c05576000809054906101000a900473ffffffffffffffffffffffffffffffffffffffff1673ffffffffffffffffffffffffffffffffffffffff16637cf2b9e48360070160009054906101000a900473ffffffffffffffffffffffffffffffffffffffff166040518263ffffffff1660e01b8152600401808273ffffffffffffffffffffffffffffffffffffffff1673ffffffffffffffffffffffffffffffffffffffff168152602001915050600060405180830381600087803b158015611bec57600080fd5b505af1158015611c00573d6000803e3d6000fd5b505050505b7f377045dd57245eddbb8b90975d6fa1c506893f621cf60d74e3532523f3eef49984826002811115611c3357fe5b604051808381526020018281526020019250505060405180910390a150505050565b60008060009054906101000a900473ffffffffffffffffffffffffffffffffffffffff1673ffffffffffffffffffffffffffffffffffffffff166324fe73fe336040518263ffffffff1660e01b8152600401808273ffffffffffffffffffffffffffffffffffffffff1673ffffffffffffffffffffffffffffffffffffffff16815260200191505060206040518083038186803b158015611cf557600080fd5b505afa158015611d09573d6000803e3d6000fd5b505050506040513d6020811015611d1f57600080fd5b8101908080519060200190929190505050611da2576040517f08c379a00000000000000000000000000000000000000000000000000000000081526004018080602001828103825260168152602001807f53656e646572206973206e6f742061206d656d6265720000000000000000000081525060200191505060405180910390fd5b600082511415611dfd576040517f08c379a00000000000000000000000000000000000000000000000000000000081526004018080602001828103825260308152602001806128da6030913960400191505060405180910390fd5b600160405180610120016040528086815260200160026003811115611e1e57fe5b815260200185815260200160016003811115611e3657fe5b81526020016000604051908082528060200260200182016040528015611e6b5781602001602082028038833980820191505090505b508152602001848152602001600073ffffffffffffffffffffffffffffffffffffffff1681526020013373ffffffffffffffffffffffffffffffffffffffff168152602001438152509080600181540180825580915050906001820390600052602060002090600a0201600090919290919091506000820151816000019080519060200190611efb92919061269f565b5060208201518160010160006101000a81548160ff02191690836003811115611f2057fe5b02179055506040820151816002015560608201518160030160006101000a81548160ff02191690836003811115611f5357fe5b02179055506080820151816005019080519060200190611f7492919061271f565b5060a0820151816006019080519060200190611f9192919061271f565b5060c08201518160070160006101000a81548173ffffffffffffffffffffffffffffffffffffffff021916908373ffffffffffffffffffffffffffffffffffffffff16021790555060e08201518160080160006101000a81548173ffffffffffffffffffffffffffffffffffffffff021916908373ffffffffffffffffffffffffffffffffffffffff16021790555061010082015181600901555050506000600180805490500390507ff558b17e24256d39da5ae39993b5a201700ef76769a6067cb8d1d33f769a3bc1816002600381111561206957fe5b604051808381526020018281526020019250505060405180910390a1809150509392505050565b806001600381111561209e57fe5b600182815481106120ab57fe5b90600052602060002090600a020160030160009054906101000a900460ff1660038111156120d557fe5b14612148576040517f08c379a00000000000000000000000000000000000000000000000000000000081526004018080602001828103825260108152602001807f566f7465206973206e6f74206f70656e0000000000000000000000000000000081525060200191505060405180910390fd5b60006001838154811061215757fe5b90600052602060002090600a020190506000600281111561217457fe5b61217d8261245a565b600281111561218857fe5b146121de576040517f08c379a00000000000000000000000000000000000000000000000000000000081526004018080602001828103825260228152602001806128586022913960400191505060405180910390fd5b60008160090154430390506202a3008110156122bb573373ffffffffffffffffffffffffffffffffffffffff166001858154811061221857fe5b90600052602060002090600a020160080160009054906101000a900473ffffffffffffffffffffffffffffffffffffffff1673ffffffffffffffffffffffffffffffffffffffff16146122b6576040517f08c379a00000000000000000000000000000000000000000000000000000000081526004018080602001828103825260378152602001806128a36037913960400191505060405180910390fd5b6123ea565b6000809054906101000a900473ffffffffffffffffffffffffffffffffffffffff1673ffffffffffffffffffffffffffffffffffffffff166324fe73fe336040518263ffffffff1660e01b8152600401808273ffffffffffffffffffffffffffffffffffffffff1673ffffffffffffffffffffffffffffffffffffffff16815260200191505060206040518083038186803b15801561235957600080fd5b505afa15801561236d573d6000803e3d6000fd5b505050506040513d602081101561238357600080fd5b81019080805190602001909291905050506123e9576040517f08c379a00000000000000000000000000000000000000000000000000000000081526004018080602001828103825260468152602001806128126046913960600191505060405180910390fd5b5b60038260030160006101000a81548160ff0219169083600381111561240b57fe5b02179055507fd7a1299a936f242e76e6b1d1bb9b1d377afacb743d2a4cb9ef010e24978dc159846040518082815260200191505060405180910390a150505050565b6000600180549050905090565b60008060009050600080905060008090505b8460050180549050811461256257600085600401600087600501848154811061249157fe5b9060005260206000200160009054906101000a900473ffffffffffffffffffffffffffffffffffffffff1673ffffffffffffffffffffffffffffffffffffffff1673ffffffffffffffffffffffffffffffffffffffff16815260200190815260200160002060009054906101000a900460ff1690506001600281111561251357fe5b81600281111561251f57fe5b141561253057836001019350612556565b60028081111561253c57fe5b81600281111561254857fe5b1415612555578260010192505b5b5080600101905061246c565b506002600381111561257057fe5b8460030160009054906101000a900460ff16600381111561258d57fe5b14156125b157808211156125a65760019250505061269a565b60029250505061269a565b60008060009054906101000a900473ffffffffffffffffffffffffffffffffffffffff1673ffffffffffffffffffffffffffffffffffffffff1663638dd56a6040518163ffffffff1660e01b815260040160206040518083038186803b15801561261a57600080fd5b505afa15801561262e573d6000803e3d6000fd5b505050506040513d602081101561264457600080fd5b810190808051906020019092919050505090506002818161266157fe5b04831115612675576001935050505061269a565b6002818161267f57fe5b048210612692576002935050505061269a565b600093505050505b919050565b828054600181600116156101000203166002900490600052602060002090601f016020900481019282601f106126e057805160ff191683800117855561270e565b8280016001018555821561270e579182015b8281111561270d5782518255916020019190600101906126f2565b5b50905061271b91906127a9565b5090565b828054828255906000526020600020908101928215612798579160200282015b828111156127975782518260006101000a81548173ffffffffffffffffffffffffffffffffffffffff021916908373ffffffffffffffffffffffffffffffffffffffff1602179055509160200191906001019061273f565b5b5090506127a591906127ce565b5090565b6127cb91905b808211156127c75760008160009055506001016127af565b5090565b90565b61280e91905b8082111561280a57600081816101000a81549073ffffffffffffffffffffffffffffffffffffffff0219169055506001016127d4565b5090565b9056fe4166746572203137322c38303020626c6f636b732c206f6e6c7920726567756c617220616e6420626f617264206d656d626572732063616e2063616e63656c206120766f74654f6e6c7920756e6465636964656420766f7465732063616e20626520636c6f73656441646472657373206f66206e657720636f6e7472616374206d757374206e6f7420626520656d70747957697468696e203137322c38303020626c6f636b732c206f6e6c7920696e69746961746f722063616e2063616e63656c206120766f74654c697374206f6620626f617264206d656d62657220616464726573736573206d757374206e6f7420626520656d707479a165627a7a72305820fbb1ea292dabd0653af1f143fc2aab77f7645590a6e8ec470591fad4388cb4c20029",
  "source": "pragma solidity ^0.5.0;\r\n\r\nimport \"./Members.sol\";\r\n\r\ncontract Voting {\r\n\r\n    event VoteCreated(uint voteId, uint voteType);\r\n    event VoteCast(uint voteId, address voter);\r\n    event VoteClosed(uint voteId, uint outcome);\r\n    event VoteCanceled(uint voteId);\r\n\r\n    Members private membersContract;\r\n\r\n    enum VoteStatus {\r\n        NONE,\r\n        OPEN,\r\n        CLOSED,\r\n        CANCELED\r\n    }\r\n\r\n    enum VoteOutcome {\r\n        NONE,\r\n        YES,\r\n        NO\r\n    }\r\n\r\n    enum VoteType {\r\n        NONE,\r\n        DOCUMENT,\r\n        BOARD_MEMBER,\r\n        VOTING_CONTRACT_UPDATE\r\n    }\r\n\r\n    struct Vote {\r\n        string name;\r\n        VoteType voteType;\r\n        bytes32 documentHash;\r\n        VoteStatus status;\r\n        mapping (address => VoteOutcome) outcome;\r\n        address[] voters;\r\n        address[] newBoardMembers;\r\n        address newVotingContractAddress;\r\n        address initiator;\r\n        uint blockNumberAtInitiation;\r\n    }\r\n\r\n    Vote[] private votes;\r\n\r\n    modifier onlyMember {\r\n        require(membersContract.isRegularOrBoardMember(msg.sender), \"Sender is not a member\");\r\n        _;\r\n    }\r\n\r\n    modifier onlyOpenVote(uint voteId) {\r\n        require(votes[voteId].status == VoteStatus.OPEN, \"Vote is not open\");\r\n        _;\r\n    }\r\n\r\n    modifier onlyClosedVote(uint voteId) {\r\n        require(votes[voteId].status == VoteStatus.CLOSED, \"Vote is not closed\");\r\n        _;\r\n    }\r\n\r\n    // Instantiate voting contract with members contract address\r\n    constructor(address membersContractAddress) public {\r\n        membersContract = Members(membersContractAddress); \r\n    }\r\n\r\n    function initiateBoardMemberVote(string memory name, bytes32 documentHash, address[] memory newBoardMembers) public onlyMember returns (uint) {\r\n        if (newBoardMembers.length == 0) {\r\n            revert(\"List of board member addresses must not be empty\");\r\n        }\r\n\r\n        votes.push(Vote(\r\n            { name: name,\r\n            voteType: VoteType.BOARD_MEMBER,\r\n            documentHash: documentHash,\r\n            status: VoteStatus.OPEN,\r\n            newBoardMembers: newBoardMembers,\r\n            newVotingContractAddress: address(0),\r\n            voters: new address[](0),\r\n            initiator: msg.sender,\r\n            blockNumberAtInitiation: block.number\r\n            }\r\n        ));\r\n\r\n        uint  voteId = votes.length - 1;\r\n        emit VoteCreated(voteId, uint(VoteType.BOARD_MEMBER));\r\n        return voteId;\r\n    }\r\n\r\n    // create a document vote\r\n    function initiateDocumentVote(string memory name, bytes32 documentHash) public onlyMember returns (uint) {\r\n        votes.push(Vote(\r\n            { name: name,\r\n            voteType: VoteType.DOCUMENT,\r\n            documentHash: documentHash,\r\n            status: VoteStatus.OPEN,\r\n            newBoardMembers: new address[](0),\r\n            newVotingContractAddress: address(0),\r\n            voters: new address[](0),\r\n            initiator: msg.sender,\r\n            blockNumberAtInitiation: block.number\r\n            }));\r\n\r\n        uint  voteId = votes.length - 1;\r\n        emit VoteCreated(voteId, uint(VoteType.DOCUMENT));\r\n        return voteId;\r\n    }\r\n\r\n    // create a contract update vote\r\n    function initiateVotingContractUpdateVote(string memory name, address newContractAddress) public onlyMember returns (uint) {\r\n        if (newContractAddress == address(0)) {\r\n            revert(\"Address of new contract must not be empty\");\r\n        }\r\n        \r\n        votes.push(Vote(\r\n            { name: name,\r\n            voteType: VoteType.VOTING_CONTRACT_UPDATE,\r\n            documentHash: 0,\r\n            status: VoteStatus.OPEN,\r\n            newBoardMembers: new address[](0),\r\n            newVotingContractAddress: newContractAddress,\r\n            voters: new address[](0),\r\n            initiator: msg.sender,\r\n            blockNumberAtInitiation: block.number\r\n            }));\r\n\r\n        uint  voteId = votes.length - 1;\r\n        emit VoteCreated(voteId, uint(VoteType.VOTING_CONTRACT_UPDATE));\r\n        return voteId;\r\n    }\r\n\r\n    function castVote(uint voteId, bool decision) public onlyMember onlyOpenVote(voteId) {\r\n        Vote storage vote = votes[voteId];\r\n        require(vote.outcome[msg.sender] == VoteOutcome.NONE, \"Vote outcome is already set\");\r\n        if (decision == true) {\r\n            vote.outcome[msg.sender] = VoteOutcome.YES;\r\n        } else {\r\n            vote.outcome[msg.sender] = VoteOutcome.NO;\r\n        }\r\n        vote.voters.push(msg.sender);\r\n\r\n        emit VoteCast(voteId, msg.sender);\r\n    }\r\n\r\n    function getNumberOfVotes() public view returns (uint) {\r\n        return votes.length;\r\n    }\r\n\r\n    /**\r\n     * Returns vote details:\r\n     *   name\r\n     *   type (0: NONE, 1: DOCUMENT, 2: BOARD_MEMBER, 3: VOTING_CONTRACT_UPDATE)\r\n     *   documentHash (if board member vote or contract update vote)\r\n     *   status (0: NONE, 1: OPEN, 2: CLOSED)\r\n     *   board member addresses (if board member vote)\r\n     *   address of new voting contract (if contract update vote)\r\n     *   addresses of voters\r\n     */\r\n    function getVoteDetails(uint voteId) public view returns (string memory, uint, bytes32, uint, address[] memory, address, address[] memory, address, uint) {\r\n        Vote storage vote = votes[voteId];\r\n        return (vote.name, \r\n            uint(vote.voteType),\r\n            vote.documentHash,\r\n            uint(vote.status),\r\n            vote.newBoardMembers,\r\n            vote.newVotingContractAddress,\r\n            vote.voters,\r\n            vote.initiator,\r\n            vote.blockNumberAtInitiation);\r\n    }\r\n\r\n    /**\r\n     * Closes vote (if result exists)\r\n     */\r\n    function closeVote(uint voteId) public onlyMember onlyOpenVote(voteId) { \r\n        Vote storage vote = votes[voteId];\r\n        VoteOutcome outcome = computeVoteOutcome(vote);\r\n\r\n        // only close vote if result exists\r\n        if (outcome == VoteOutcome.NONE) {\r\n            revert(\"No vote result exists yet\");\r\n        }          \r\n\r\n        vote.status = VoteStatus.CLOSED;\r\n\r\n        // instantiate board members in case of board member vote\r\n        if (outcome == VoteOutcome.YES && vote.voteType == VoteType.BOARD_MEMBER) {\r\n            membersContract.replaceBoardMembers(vote.newBoardMembers);\r\n        } \r\n\r\n        // set new contract address in case of contract address vote\r\n        if (outcome == VoteOutcome.YES && vote.voteType == VoteType.VOTING_CONTRACT_UPDATE) {\r\n            membersContract.updateVotingContractAddress(vote.newVotingContractAddress);\r\n        }\r\n\r\n        emit VoteClosed(voteId, uint(outcome));\r\n    }\r\n\r\n    function computeVoteOutcome(uint voteId) public view returns (uint) {\r\n        VoteOutcome outcome = computeVoteOutcome(votes[voteId]);\r\n        return uint(outcome);\r\n    }\r\n\r\n    /**\r\n     * Eligible voters: E (i.e., regular or board members)\r\n     * Positive votes: Y\r\n     * Negative votes: N\r\n     * Open votes: O\r\n     * Y > E/2 --> Vote positive\r\n     * N > E/2 --> Vote negative\r\n     * Elsewise: Vote still open\r\n     */\r\n    function computeVoteOutcome(Vote storage vote) private view returns (VoteOutcome) {\r\n        uint positiveVotes = 0;\r\n        uint negativeVotes = 0;\r\n\r\n        // count votes: iterate through all members\r\n        for (uint i = 0; i != vote.voters.length; ++i) {\r\n            VoteOutcome outcome = vote.outcome[vote.voters[i]];\r\n            if (outcome == VoteOutcome.YES) {\r\n                ++positiveVotes;\r\n            } else if (outcome == VoteOutcome.NO) {\r\n                ++negativeVotes;\r\n            }\r\n        }\r\n\r\n        if (vote.status == VoteStatus.CLOSED) {\r\n            if (positiveVotes > negativeVotes) {\r\n                return VoteOutcome.YES;\r\n            } else {\r\n                return VoteOutcome.NO;\r\n            }\r\n        }\r\n\r\n        // If vote is not yet closed, number of potential voters must be taken into account\r\n        // when determining status of vote.\r\n        uint eligibleVoters = membersContract.getNumberOfEligibleMembers();\r\n        if (positiveVotes > eligibleVoters/2) {\r\n            return VoteOutcome.YES;\r\n        } else if (negativeVotes >= eligibleVoters/2) {\r\n            return VoteOutcome.NO;\r\n        } else {\r\n            return VoteOutcome.NONE;\r\n        }\r\n    }\r\n\r\n    /**\r\n     * An initiator of a vote can cancel a vote (if it is still undecided)\r\n     */\r\n    function cancelVote(uint voteId) public onlyOpenVote(voteId) {\r\n\r\n        Vote storage vote = votes[voteId];\r\n\r\n        // check if vote is undecided\r\n        if (computeVoteOutcome(vote) != VoteOutcome.NONE) {\r\n            revert(\"Only undecided votes can be closed\");\r\n        }\r\n        \r\n        /**\r\n         * Within 172800 blocks (roughly 30 days assuming a 15-second block size):\r\n         * Only initiator should be allowed to cancel the vote.\r\n         *\r\n         * After 172800 blocks:\r\n         * Every eligible member should be allowed to cancel the vote.\r\n         */\r\n        uint blocksPassed = block.number - vote.blockNumberAtInitiation;\r\n        if (blocksPassed < 172800) {\r\n            if (votes[voteId].initiator != msg.sender) {\r\n                revert(\"Within 172,800 blocks, only initiator can cancel a vote\");\r\n            }\r\n        } else {\r\n            if (!membersContract.isRegularOrBoardMember(msg.sender)) {\r\n                revert(\"After 172,800 blocks, only regular and board members can cancel a vote\");\r\n            }\r\n        }\r\n        \r\n        vote.status = VoteStatus.CANCELED;\r\n\r\n        emit VoteCanceled(voteId);\r\n    }\r\n}\r\n",
  "sourcePath": "/ethverein/src/contracts/Voting.sol",
  "compiler": {
    "name": "solc",
    "version": "0.5.8+commit.23d335f2.Emscripten.clang"
  },
  "schemaVersion": "3.0.15",
  "updatedAt": "2019-09-10T12:32:22.322Z",
  "devdoc": {
    "methods": {}
  },
  "userdoc": {
    "methods": {
      "cancelVote(uint256)": {
        "notice": "An initiator of a vote can cancel a vote (if it is still undecided)\r"
      },
      "closeVote(uint256)": {
        "notice": "Closes vote (if result exists)\r"
      },
      "getVoteDetails(uint256)": {
        "notice": "Returns vote details:\r  name\r  type (0: NONE, 1: DOCUMENT, 2: BOARD_MEMBER, 3: VOTING_CONTRACT_UPDATE)\r  documentHash (if board member vote or contract update vote)\r  status (0: NONE, 1: OPEN, 2: CLOSED)\r  board member addresses (if board member vote)\r  address of new voting contract (if contract update vote)\r  addresses of voters\r"
      }
    }
  }
}